{
  "address": "0x508460014313Ce91A73993eA0840bdA3d195164b",
  "abi": [
    {
      "inputs": [],
      "stateMutability": "nonpayable",
      "type": "constructor"
    },
    {
      "inputs": [
        {
          "internalType": "address",
          "name": "target",
          "type": "address"
        }
      ],
      "name": "AddressEmptyCode",
      "type": "error"
    },
    {
      "inputs": [],
      "name": "ContractPaused",
      "type": "error"
    },
    {
      "inputs": [
        {
          "internalType": "address",
          "name": "implementation",
          "type": "address"
        }
      ],
      "name": "ERC1967InvalidImplementation",
      "type": "error"
    },
    {
      "inputs": [],
      "name": "ERC1967NonPayable",
      "type": "error"
    },
    {
      "inputs": [],
      "name": "FailedCall",
      "type": "error"
    },
    {
      "inputs": [],
      "name": "InvalidInitialization",
      "type": "error"
    },
    {
      "inputs": [],
      "name": "NotInitializing",
      "type": "error"
    },
    {
      "inputs": [
        {
          "internalType": "address",
          "name": "owner",
          "type": "address"
        }
      ],
      "name": "OwnableInvalidOwner",
      "type": "error"
    },
    {
      "inputs": [
        {
          "internalType": "address",
          "name": "account",
          "type": "address"
        }
      ],
      "name": "OwnableUnauthorizedAccount",
      "type": "error"
    },
    {
      "inputs": [
        {
          "internalType": "address",
          "name": "token",
          "type": "address"
        }
      ],
      "name": "SafeERC20FailedOperation",
      "type": "error"
    },
    {
      "inputs": [],
      "name": "UUPSUnauthorizedCallContext",
      "type": "error"
    },
    {
      "inputs": [
        {
          "internalType": "bytes32",
          "name": "slot",
          "type": "bytes32"
        }
      ],
      "name": "UUPSUnsupportedProxiableUUID",
      "type": "error"
    },
    {
      "inputs": [],
      "name": "UnauthorizedSender",
      "type": "error"
    },
    {
      "inputs": [],
      "name": "UnsupportedMessageType",
      "type": "error"
    },
    {
      "inputs": [],
      "name": "UntrustedOApp",
      "type": "error"
    },
    {
      "inputs": [],
      "name": "ZeroAddress",
      "type": "error"
    },
    {
      "anonymous": false,
      "inputs": [
        {
          "indexed": true,
          "internalType": "address",
          "name": "oldEndpoint",
          "type": "address"
        },
        {
          "indexed": true,
          "internalType": "address",
          "name": "newEndpoint",
          "type": "address"
        }
      ],
      "name": "EndpointUpdated",
      "type": "event"
    },
    {
      "anonymous": false,
      "inputs": [
        {
          "indexed": false,
          "internalType": "uint64",
          "name": "version",
          "type": "uint64"
        }
      ],
      "name": "Initialized",
      "type": "event"
    },
    {
      "anonymous": false,
      "inputs": [
        {
          "indexed": true,
          "internalType": "address",
          "name": "previousOwner",
          "type": "address"
        },
        {
          "indexed": true,
          "internalType": "address",
          "name": "newOwner",
          "type": "address"
        }
      ],
      "name": "OwnershipTransferred",
      "type": "event"
    },
    {
      "anonymous": false,
      "inputs": [
        {
          "indexed": false,
          "internalType": "bool",
          "name": "paused",
          "type": "bool"
        }
      ],
      "name": "PausedStateChanged",
      "type": "event"
    },
    {
      "anonymous": false,
      "inputs": [
        {
          "indexed": true,
          "internalType": "address",
          "name": "recipient",
          "type": "address"
        },
        {
          "indexed": false,
          "internalType": "uint256",
          "name": "amount",
          "type": "uint256"
        },
        {
          "indexed": false,
          "internalType": "enum ComposeMsg.MessageType",
          "name": "messageType",
          "type": "uint8"
        }
      ],
      "name": "TokensProcessed",
      "type": "event"
    },
    {
      "anonymous": false,
      "inputs": [
        {
          "indexed": true,
          "internalType": "address",
          "name": "oldTrustedOFT",
          "type": "address"
        },
        {
          "indexed": true,
          "internalType": "address",
          "name": "newTrustedOFT",
          "type": "address"
        }
      ],
      "name": "TrustedOFTUpdated",
      "type": "event"
    },
    {
      "anonymous": false,
      "inputs": [
        {
          "indexed": true,
          "internalType": "address",
          "name": "implementation",
          "type": "address"
        }
      ],
      "name": "Upgraded",
      "type": "event"
    },
    {
      "inputs": [],
      "name": "UPGRADE_INTERFACE_VERSION",
      "outputs": [
        {
          "internalType": "string",
          "name": "",
          "type": "string"
        }
      ],
      "stateMutability": "view",
      "type": "function"
    },
    {
      "inputs": [
        {
          "internalType": "address",
          "name": "_token",
          "type": "address"
        },
        {
          "internalType": "address",
          "name": "_to",
          "type": "address"
        },
        {
          "internalType": "uint256",
          "name": "_amount",
          "type": "uint256"
        }
      ],
      "name": "emergencyWithdraw",
      "outputs": [],
      "stateMutability": "nonpayable",
      "type": "function"
    },
    {
      "inputs": [],
      "name": "endpoint",
      "outputs": [
        {
          "internalType": "address",
          "name": "",
          "type": "address"
        }
      ],
      "stateMutability": "view",
      "type": "function"
    },
    {
      "inputs": [
        {
          "internalType": "address",
          "name": "_endpoint",
          "type": "address"
        },
        {
          "internalType": "address",
          "name": "_trustedOFT",
          "type": "address"
        },
        {
          "internalType": "address",
          "name": "_owner",
          "type": "address"
        }
      ],
      "name": "initialize",
      "outputs": [],
      "stateMutability": "nonpayable",
      "type": "function"
    },
    {
      "inputs": [
        {
          "internalType": "address",
          "name": "_oApp",
          "type": "address"
        },
        {
          "internalType": "bytes32",
          "name": "_guid",
          "type": "bytes32"
        },
        {
          "internalType": "bytes",
          "name": "_message",
          "type": "bytes"
        },
        {
          "internalType": "address",
          "name": "",
          "type": "address"
        },
        {
          "internalType": "bytes",
          "name": "",
          "type": "bytes"
        }
      ],
      "name": "lzCompose",
      "outputs": [],
      "stateMutability": "payable",
      "type": "function"
    },
    {
      "inputs": [],
      "name": "owner",
      "outputs": [
        {
          "internalType": "address",
          "name": "",
          "type": "address"
        }
      ],
      "stateMutability": "view",
      "type": "function"
    },
    {
      "inputs": [],
      "name": "paused",
      "outputs": [
        {
          "internalType": "bool",
          "name": "",
          "type": "bool"
        }
      ],
      "stateMutability": "view",
      "type": "function"
    },
    {
      "inputs": [],
      "name": "proxiableUUID",
      "outputs": [
        {
          "internalType": "bytes32",
          "name": "",
          "type": "bytes32"
        }
      ],
      "stateMutability": "view",
      "type": "function"
    },
    {
      "inputs": [],
      "name": "renounceOwnership",
      "outputs": [],
      "stateMutability": "nonpayable",
      "type": "function"
    },
    {
      "inputs": [
        {
          "internalType": "bool",
          "name": "_paused",
          "type": "bool"
        }
      ],
      "name": "setPaused",
      "outputs": [],
      "stateMutability": "nonpayable",
      "type": "function"
    },
    {
      "inputs": [],
      "name": "totalProcessed",
      "outputs": [
        {
          "internalType": "uint256",
          "name": "",
          "type": "uint256"
        }
      ],
      "stateMutability": "view",
      "type": "function"
    },
    {
      "inputs": [
        {
          "internalType": "address",
          "name": "newOwner",
          "type": "address"
        }
      ],
      "name": "transferOwnership",
      "outputs": [],
      "stateMutability": "nonpayable",
      "type": "function"
    },
    {
      "inputs": [],
      "name": "trustedOFT",
      "outputs": [
        {
          "internalType": "address",
          "name": "",
          "type": "address"
        }
      ],
      "stateMutability": "view",
      "type": "function"
    },
    {
      "inputs": [
        {
          "internalType": "address",
          "name": "_newEndpoint",
          "type": "address"
        }
      ],
      "name": "updateEndpoint",
      "outputs": [],
      "stateMutability": "nonpayable",
      "type": "function"
    },
    {
      "inputs": [
        {
          "internalType": "address",
          "name": "_newTrustedOFT",
          "type": "address"
        }
      ],
      "name": "updateTrustedOFT",
      "outputs": [],
      "stateMutability": "nonpayable",
      "type": "function"
    },
    {
      "inputs": [
        {
          "internalType": "address",
          "name": "newImplementation",
          "type": "address"
        },
        {
          "internalType": "bytes",
          "name": "data",
          "type": "bytes"
        }
      ],
      "name": "upgradeToAndCall",
      "outputs": [],
      "stateMutability": "payable",
      "type": "function"
    },
    {
      "inputs": [],
      "name": "version",
      "outputs": [
        {
          "internalType": "string",
          "name": "",
          "type": "string"
        }
      ],
      "stateMutability": "pure",
      "type": "function"
    }
  ],
  "transactionHash": "0x6b37fb250001fbb49e723da61d6436d4213df015ff7b8510728483f8a6821b14",
  "args": [],
  "numDeployments": 1,
  "solcInputHash": "6110f460dae90dbb41e7ccdbfa406316",
  "bytecode": "0x60a06040523060805234801561001457600080fd5b5061001d610022565b6100d4565b7ff0c57e16840df040f15088dc2f81fe391c3923bec73e23a9662efc9c229c6a00805468010000000000000000900460ff16156100725760405163f92ee8a960e01b815260040160405180910390fd5b80546001600160401b03908116146100d15780546001600160401b0319166001600160401b0390811782556040519081527fc7f505b2f371ae2175ee4913f4499e1f2633a7b5936321eed1cdaeb6115181d29060200160405180910390a15b50565b60805161154e6100fd600039600081816109750152818161099e0152610adf015261154e6000f3fe6080604052600436106100fe5760003560e01c80638da5cb5b11610095578063bdc59d0b11610064578063bdc59d0b146102d2578063c0c53b8b146102f2578063d0a1026014610312578063e63ea40814610325578063f2fde38b1461034557600080fd5b80638da5cb5b14610224578063a023c7eb14610261578063a7170d4814610281578063ad3cb1cc146102a157600080fd5b80635c975abb116100d15780635c975abb146101975780635e280f11146101c1578063715018a6146101f957806384411d651461020e57600080fd5b806316c38b3c146101035780634f1ef2861461012557806352d1902d1461013857806354fd4d5014610160575b600080fd5b34801561010f57600080fd5b5061012361011e366004610fed565b610365565b005b610123610133366004611093565b6103b4565b34801561014457600080fd5b5061014d6103d3565b6040519081526020015b60405180910390f35b34801561016c57600080fd5b506040805180820190915260058152640312e302e360dc1b60208201525b604051610157919061114a565b3480156101a357600080fd5b506003546101b19060ff1681565b6040519015158152602001610157565b3480156101cd57600080fd5b506000546101e1906001600160a01b031681565b6040516001600160a01b039091168152602001610157565b34801561020557600080fd5b506101236103f0565b34801561021a57600080fd5b5061014d60025481565b34801561023057600080fd5b507f9016d09d72d40fdae2fd8ceac6b6234c7706214fd39c1cd1e609a0528c199300546001600160a01b03166101e1565b34801561026d57600080fd5b506001546101e1906001600160a01b031681565b34801561028d57600080fd5b5061012361029c36600461117d565b610404565b3480156102ad57600080fd5b5061018a604051806040016040528060058152602001640352e302e360dc1b81525081565b3480156102de57600080fd5b506101236102ed36600461117d565b610483565b3480156102fe57600080fd5b5061012361030d36600461119a565b610504565b61012361032036600461122e565b610690565b34801561033157600080fd5b506101236103403660046112cf565b610884565b34801561035157600080fd5b5061012361036036600461117d565b6108cc565b61036d61090f565b6003805460ff19168215159081179091556040519081527f9e3a5e37224532dea67b89face185703738a228a6e8a23dee546960180d3be649060200160405180910390a150565b6103bc61096a565b6103c582610a0f565b6103cf8282610a17565b5050565b60006103dd610ad4565b506000805160206114f983398151915290565b6103f861090f565b6104026000610b1d565b565b61040c61090f565b6001600160a01b0381166104335760405163d92e233d60e01b815260040160405180910390fd5b600080546001600160a01b038381166001600160a01b0319831681178455604051919092169283917f241827194635b544bceb965d0e124305c0968051403ae83cb99d1ef86bd65f589190a35050565b61048b61090f565b6001600160a01b0381166104b25760405163d92e233d60e01b815260040160405180910390fd5b600180546001600160a01b038381166001600160a01b0319831681179093556040519116919082907ffa883ce9c5622d4f14467860bcafffbba0a784e227f5b172c795304601a2474d90600090a35050565b600061050e610b8e565b805490915060ff600160401b820416159067ffffffffffffffff166000811580156105365750825b905060008267ffffffffffffffff1660011480156105535750303b155b905081158015610561575080155b1561057f5760405163f92ee8a960e01b815260040160405180910390fd5b845467ffffffffffffffff1916600117855583156105a957845460ff60401b1916600160401b1785555b6001600160a01b03881615806105c657506001600160a01b038716155b806105d857506001600160a01b038616155b156105f65760405163d92e233d60e01b815260040160405180910390fd5b6105ff86610bb9565b610607610bca565b600080546001600160a01b03808b166001600160a01b031992831617835560018054918b16919092161790556003805460ff19169055600255831561068657845460ff60401b19168555604051600181527fc7f505b2f371ae2175ee4913f4499e1f2633a7b5936321eed1cdaeb6115181d29060200160405180910390a15b5050505050505050565b60035460ff16156106b45760405163ab35696f60e01b815260040160405180910390fd5b6000546001600160a01b031633146106df57604051630101292160e31b815260040160405180910390fd5b6001546001600160a01b0388811691161461070d576040516324e8ff8360e11b815260040160405180910390fd5b60006107198686610bd2565b905060006107278787610bf4565b905060006107358888610c17565b905060006107438989610c37565b90508060006107528b8b610c47565b9050600061075f82610c92565b905060008160200151600181111561077957610779611310565b0361079e578051600154610799916001600160a01b039091169087610d09565b610810565b6001816020015160018111156107b6576107b6611310565b036107f757600081604001518060200190518101906107d59190611326565b82516001549192506107f1916001600160a01b03169088610d09565b50610810565b60405163ec42e5ff60e01b815260040160405180910390fd5b8460026000828254610822919061133f565b9250508190555080600001516001600160a01b03167fe6eb21a1ce7c814d543938f58deaa9d5befd48494d1f1e27a03a6c621653b07586836020015160405161086c929190611360565b60405180910390a25050505050505050505050505050565b61088c61090f565b6001600160a01b0382166108b35760405163d92e233d60e01b815260040160405180910390fd5b6108c76001600160a01b0384168383610d09565b505050565b6108d461090f565b6001600160a01b03811661090357604051631e4fbdf760e01b8152600060048201526024015b60405180910390fd5b61090c81610b1d565b50565b336109417f9016d09d72d40fdae2fd8ceac6b6234c7706214fd39c1cd1e609a0528c199300546001600160a01b031690565b6001600160a01b0316146104025760405163118cdaa760e01b81523360048201526024016108fa565b306001600160a01b037f00000000000000000000000000000000000000000000000000000000000000001614806109f157507f00000000000000000000000000000000000000000000000000000000000000006001600160a01b03166109e56000805160206114f9833981519152546001600160a01b031690565b6001600160a01b031614155b156104025760405163703e46dd60e11b815260040160405180910390fd5b61090c61090f565b816001600160a01b03166352d1902d6040518163ffffffff1660e01b8152600401602060405180830381865afa925050508015610a71575060408051601f3d908101601f19168201909252610a6e91810190611326565b60015b610a9957604051634c9c8ce360e01b81526001600160a01b03831660048201526024016108fa565b6000805160206114f98339815191528114610aca57604051632a87526960e21b8152600481018290526024016108fa565b6108c78383610d5b565b306001600160a01b037f000000000000000000000000000000000000000000000000000000000000000016146104025760405163703e46dd60e11b815260040160405180910390fd5b7f9016d09d72d40fdae2fd8ceac6b6234c7706214fd39c1cd1e609a0528c19930080546001600160a01b031981166001600160a01b03848116918217845560405192169182907f8be0079c531659141344cd1fd0a4f28419497f9722a3daafe3b4186f6b6457e090600090a3505050565b6000807ff0c57e16840df040f15088dc2f81fe391c3923bec73e23a9662efc9c229c6a005b92915050565b610bc1610db1565b61090c81610dd6565b610402610db1565b6000610be16008828486611392565b610bea916113bc565b60c01c9392505050565b6000610c04600c60088486611392565b610c0d916113ec565b60e01c9392505050565b6000610c27602c600c8486611392565b610c309161141a565b9392505050565b6000610c27604c602c8486611392565b6060610c5682604c8186611392565b8080601f016020809104026020016040519081016040528093929190818152602001838380828437600092019190915250929695505050505050565b6040805160608082018352600080835260208301529181019190915281806020019051810190610cc29190611438565b604084018190528360208101836001811115610ce057610ce0611310565b6001811115610cf157610cf1611310565b90526001600160a01b03909316909252509092915050565b604080516001600160a01b038416602482015260448082018490528251808303909101815260649091019091526020810180516001600160e01b031663a9059cbb60e01b1790526108c7908490610dde565b610d6482610e55565b6040516001600160a01b038316907fbc7cd75a20ee27fd9adebab32041f755214dbc6bffa90cc0225b39da2e5c2d3b90600090a2805115610da9576108c78282610eba565b6103cf610f30565b610db9610f4f565b61040257604051631afcd79f60e31b815260040160405180910390fd5b6108d4610db1565b600080602060008451602086016000885af180610e01576040513d6000823e3d81fd5b50506000513d91508115610e19578060011415610e26565b6001600160a01b0384163b155b15610e4f57604051635274afe760e01b81526001600160a01b03851660048201526024016108fa565b50505050565b806001600160a01b03163b600003610e8b57604051634c9c8ce360e01b81526001600160a01b03821660048201526024016108fa565b6000805160206114f983398151915280546001600160a01b0319166001600160a01b0392909216919091179055565b6060600080846001600160a01b031684604051610ed791906114dc565b600060405180830381855af49150503d8060008114610f12576040519150601f19603f3d011682016040523d82523d6000602084013e610f17565b606091505b5091509150610f27858383610f69565b95945050505050565b34156104025760405163b398979f60e01b815260040160405180910390fd5b6000610f59610b8e565b54600160401b900460ff16919050565b606082610f7e57610f7982610fc5565b610c30565b8151158015610f9557506001600160a01b0384163b155b15610fbe57604051639996b31560e01b81526001600160a01b03851660048201526024016108fa565b5092915050565b805115610fd457805160208201fd5b60405163d6bda27560e01b815260040160405180910390fd5b600060208284031215610fff57600080fd5b81358015158114610c3057600080fd5b6001600160a01b038116811461090c57600080fd5b634e487b7160e01b600052604160045260246000fd5b604051601f8201601f1916810167ffffffffffffffff8111828210171561106357611063611024565b604052919050565b600067ffffffffffffffff82111561108557611085611024565b50601f01601f191660200190565b600080604083850312156110a657600080fd5b82356110b18161100f565b9150602083013567ffffffffffffffff8111156110cd57600080fd5b8301601f810185136110de57600080fd5b80356110f16110ec8261106b565b61103a565b81815286602083850101111561110657600080fd5b816020840160208301376000602083830101528093505050509250929050565b60005b83811015611141578181015183820152602001611129565b50506000910152565b6020815260008251806020840152611169816040850160208701611126565b601f01601f19169190910160400192915050565b60006020828403121561118f57600080fd5b8135610c308161100f565b6000806000606084860312156111af57600080fd5b83356111ba8161100f565b925060208401356111ca8161100f565b915060408401356111da8161100f565b809150509250925092565b60008083601f8401126111f757600080fd5b50813567ffffffffffffffff81111561120f57600080fd5b60208301915083602082850101111561122757600080fd5b9250929050565b600080600080600080600060a0888a03121561124957600080fd5b87356112548161100f565b965060208801359550604088013567ffffffffffffffff8082111561127857600080fd5b6112848b838c016111e5565b909750955060608a013591506112998261100f565b909350608089013590808211156112af57600080fd5b506112bc8a828b016111e5565b989b979a50959850939692959293505050565b6000806000606084860312156112e457600080fd5b83356112ef8161100f565b925060208401356112ff8161100f565b929592945050506040919091013590565b634e487b7160e01b600052602160045260246000fd5b60006020828403121561133857600080fd5b5051919050565b80820180821115610bb357634e487b7160e01b600052601160045260246000fd5b828152604081016002831061138557634e487b7160e01b600052602160045260246000fd5b8260208301529392505050565b600080858511156113a257600080fd5b838611156113af57600080fd5b5050820193919092039150565b6001600160c01b031981358181169160088510156113e45780818660080360031b1b83161692505b505092915050565b6001600160e01b031981358181169160048510156113e45760049490940360031b84901b1690921692915050565b80356020831015610bb357600019602084900360031b1b1692915050565b60008060006060848603121561144d57600080fd5b83516114588161100f565b60208501519093506002811061146d57600080fd5b604085015190925067ffffffffffffffff81111561148a57600080fd5b8401601f8101861361149b57600080fd5b80516114a96110ec8261106b565b8181528760208385010111156114be57600080fd5b6114cf826020830160208601611126565b8093505050509250925092565b600082516114ee818460208701611126565b919091019291505056fe360894a13ba1a3210667c828492db98dca3e2076cc3735a920a3ca505d382bbca264697066735822122018ed50215b81bf0585688b39cce9fff94579d54be46ef5a3ee3a1b86da4581f464736f6c63430008160033",
  "devdoc": {
    "details": "Uses UUPS proxy pattern. Works with standard (non-upgradeable) AlphaOFT contracts.",
    "errors": {
      "AddressEmptyCode(address)": [
        {
          "details": "There's no code at `target` (it is not a contract)."
        }
      ],
      "ERC1967InvalidImplementation(address)": [
        {
          "details": "The `implementation` of the proxy is invalid."
        }
      ],
      "ERC1967NonPayable()": [
        {
          "details": "An upgrade function sees `msg.value > 0` that may be lost."
        }
      ],
      "FailedCall()": [
        {
          "details": "A call to an address target failed. The target may have reverted."
        }
      ],
      "InvalidInitialization()": [
        {
          "details": "The contract is already initialized."
        }
      ],
      "NotInitializing()": [
        {
          "details": "The contract is not initializing."
        }
      ],
      "OwnableInvalidOwner(address)": [
        {
          "details": "The owner is not a valid owner account. (eg. `address(0)`)"
        }
      ],
      "OwnableUnauthorizedAccount(address)": [
        {
          "details": "The caller account is not authorized to perform an operation."
        }
      ],
      "SafeERC20FailedOperation(address)": [
        {
          "details": "An operation with an ERC-20 token failed."
        }
      ],
      "UUPSUnauthorizedCallContext()": [
        {
          "details": "The call is from an unauthorized context."
        }
      ],
      "UUPSUnsupportedProxiableUUID(bytes32)": [
        {
          "details": "The storage `slot` is unsupported as a UUID."
        }
      ]
    },
    "events": {
      "Initialized(uint64)": {
        "details": "Triggered when the contract has been initialized or reinitialized."
      },
      "Upgraded(address)": {
        "details": "Emitted when the implementation is upgraded."
      }
    },
    "kind": "dev",
    "methods": {
      "constructor": {
        "custom:oz-upgrades-unsafe-allow": "constructor"
      },
      "emergencyWithdraw(address,address,uint256)": {
        "params": {
          "_amount": "Amount to withdraw",
          "_to": "Recipient address",
          "_token": "Token address to withdraw"
        }
      },
      "initialize(address,address,address)": {
        "params": {
          "_endpoint": "LayerZero endpoint address",
          "_owner": "Owner of this upgradeable contract",
          "_trustedOFT": "Trusted non-upgradeable OFT contract address"
        }
      },
      "lzCompose(address,bytes32,bytes,address,bytes)": {
        "params": {
          "_guid": "Unique identifier for this message",
          "_message": "Encoded message containing compose data",
          "_oApp": "Address of the originating OApp (must be trusted OFT)"
        }
      },
      "owner()": {
        "details": "Returns the address of the current owner."
      },
      "proxiableUUID()": {
        "details": "Implementation of the ERC-1822 {proxiableUUID} function. This returns the storage slot used by the implementation. It is used to validate the implementation's compatibility when performing an upgrade. IMPORTANT: A proxy pointing at a proxiable contract should not be considered proxiable itself, because this risks bricking a proxy that upgrades to it, by delegating to itself until out of gas. Thus it is critical that this function revert if invoked through a proxy. This is guaranteed by the `notDelegated` modifier."
      },
      "renounceOwnership()": {
        "details": "Leaves the contract without owner. It will not be possible to call `onlyOwner` functions. Can only be called by the current owner. NOTE: Renouncing ownership will leave the contract without an owner, thereby disabling any functionality that is only available to the owner."
      },
      "setPaused(bool)": {
        "params": {
          "_paused": "New paused state"
        }
      },
      "transferOwnership(address)": {
        "details": "Transfers ownership of the contract to a new account (`newOwner`). Can only be called by the current owner."
      },
      "updateEndpoint(address)": {
        "params": {
          "_newEndpoint": "New endpoint address"
        }
      },
      "updateTrustedOFT(address)": {
        "params": {
          "_newTrustedOFT": "New trusted non-upgradeable OFT address"
        }
      },
      "upgradeToAndCall(address,bytes)": {
        "custom:oz-upgrades-unsafe-allow-reachable": "delegatecall",
        "details": "Upgrade the implementation of the proxy to `newImplementation`, and subsequently execute the function call encoded in `data`. Calls {_authorizeUpgrade}. Emits an {Upgraded} event."
      },
      "version()": {
        "returns": {
          "_0": "Version string"
        }
      }
    },
    "title": "AlphaTokenCrossChainManager",
    "version": 1
  },
  "userdoc": {
    "errors": {
      "UnauthorizedSender()": [
        {
          "notice": "Errors"
        }
      ]
    },
    "events": {
      "EndpointUpdated(address,address)": {
        "notice": "Events"
      }
    },
    "kind": "user",
    "methods": {
      "emergencyWithdraw(address,address,uint256)": {
        "notice": "Emergency function to withdraw any stuck tokens (only owner)"
      },
      "endpoint()": {
        "notice": "LayerZero endpoint address"
      },
      "initialize(address,address,address)": {
        "notice": "Initialize the upgradeable contract"
      },
      "lzCompose(address,bytes32,bytes,address,bytes)": {
        "notice": "Handles composed messages from the non-upgradeable OFT"
      },
      "paused()": {
        "notice": "Whether the contract is paused"
      },
      "setPaused(bool)": {
        "notice": "Pause or unpause the contract (only owner)"
      },
      "totalProcessed()": {
        "notice": "Total amount processed by this contract"
      },
      "trustedOFT()": {
        "notice": "Trusted OFT that can send composed messages (non-upgradeable AlphaOFT)"
      },
      "updateEndpoint(address)": {
        "notice": "Update the LayerZero endpoint address (only owner)"
      },
      "updateTrustedOFT(address)": {
        "notice": "Update the trusted OFT address (only owner)"
      },
      "version()": {
        "notice": "Get the implementation version"
      }
    },
    "notice": "Upgradeable contract that handles cross-chain operations with non-upgradeable OFT tokens",
    "version": 1
  },
  "storageLayout": {
    "storage": [
      {
        "astId": 2304,
        "contract": "contracts/AlphaTokenCrossChainManager.sol:AlphaTokenCrossChainManager",
        "label": "endpoint",
        "offset": 0,
        "slot": "0",
        "type": "t_address"
      },
      {
        "astId": 2307,
        "contract": "contracts/AlphaTokenCrossChainManager.sol:AlphaTokenCrossChainManager",
        "label": "trustedOFT",
        "offset": 0,
        "slot": "1",
        "type": "t_address"
      },
      {
        "astId": 2310,
        "contract": "contracts/AlphaTokenCrossChainManager.sol:AlphaTokenCrossChainManager",
        "label": "totalProcessed",
        "offset": 0,
        "slot": "2",
        "type": "t_uint256"
      },
      {
        "astId": 2313,
        "contract": "contracts/AlphaTokenCrossChainManager.sol:AlphaTokenCrossChainManager",
        "label": "paused",
        "offset": 0,
        "slot": "3",
        "type": "t_bool"
      }
    ],
    "types": {
      "t_address": {
        "encoding": "inplace",
        "label": "address",
        "numberOfBytes": "20"
      },
      "t_bool": {
        "encoding": "inplace",
        "label": "bool",
        "numberOfBytes": "1"
      },
      "t_uint256": {
        "encoding": "inplace",
        "label": "uint256",
        "numberOfBytes": "32"
      }
    }
  }
}